:020000040800F2
:1000000028070020D5010008550A00084D0A0008FD
:10001000510A000855080008F91300080000000004
:10002000000000000000000000000000210C00089B
:100030005908000800000000C90A0008350D000832
:10004000EF010008EF010008EF010008EF010008D0
:10005000EF010008EF010008EF010008EF010008C0
:10006000EF010008EF010008EF010008EF010008B0
:10007000EF010008EF010008EF010008EF010008A0
:10008000EF010008EF010008EF010008EF01000890
:10009000EF010008EF010008EF010008EF01000880
:1000A000EF010008EF010008EF010008EF01000870
:1000B000EF010008EF010008EF010008EF01000860
:1000C000EF010008EF010008EF010008EF01000850
:1000D000EF010008E10D0008910E0008450F00082F
:1000E000EF010008EF010008EF010008EF01000830
:1000F000EF010008EF010008EF010008EF01000820
:10010000EF010008EF010008EF010008EF0100080F
:10011000EF010008EF010008EF010008EF010008FF
:10012000EF010008EF010008EF010008EF010008EF
:1001300000F002F800F03FF80AA090E8000C8244BA
:100140008344AAF10107DA4501D100F034F8AFF297
:10015000090EBAE80F0013F0010F18BFFB1A43F0A5
:1001600001031847A0130000C0130000103A24BF79
:1001700078C878C1FAD8520724BF30C830C144BF0C
:1001800004680C607047000000230024002500264E
:10019000103A28BF78C1FBD8520728BF30C148BFEA
:1001A0000B607047642900F07580002070471FB510
:1001B0001FBD10B510BD00F033F91146FFF7F7FF72
:1001C00001F070F900F051F903B4FFF7F2FF03BC3E
:1001D00000F056F90948804709480047FEE7FEE766
:1001E000FEE7FEE7FEE7FEE7FEE7FEE7FEE7FEE7E7
:1001F00004480549054A064B70470000390D0008C0
:1002000031010008280100202807002028030020D1
:10021000280300200FB4044910B503AA029800F087
:10022000D1F810BC5DF814FB1C0000202DE9F04152
:100230000E460446002020622046E168884730B31D
:10024000252805D0D4E901219047206A401CF2E717
:10025000E168204600278847050018D0A5F1410035
:10026000192802D820354FF4006732462946204627
:100270002760FFF797FF40B1012804D0F61D26F054
:1002800007060836D8E7361DD6E72846DAE7206A9B
:10029000BDE8F0812DE9F04106460024106875297B
:1002A000314616A510D0AFF30080002802DA404294
:1002B00013A507E031688A0701D512A502E04907B6
:1002C00004D511A5012401E0AFF3008000210A222A
:1002D00006F1240709E0B0FBF2FCB0FBF2F302FBED
:1002E0001C00303078541846491C0028F3D12346AE
:1002F0002A463046BDE8F04100F00BB8000000008F
:100300002D0000002B000000200000007047704707
:1003100070472DE9F0470D4699469246044600F194
:1003200024080168880604D5E06921F010012160E5
:1003300000E00120A84201DD471B00E00027A16981
:100340007A1902EB0900081AA0612078C00602D4CD
:100350002046AFF30080002608E0D4E901211AF816
:1003600006009047206A401C761C20624E45F4DB54
:100370002078C0060AD52046AFF3008006E0D4E915
:10038000012130209047206A401C2062381EA7F1CE
:100390000107F4DC07E0D4E9012118F805009047D3
:1003A000206A401C2062281EA5F10105F3DC2046CE
:1003B000AFF300802078000602D50220BDE8F08768
:1003C0000120FBE7074B70B50D467B4400F011F8A8
:1003D0000446284600F020F810B14FF0FF3070BD01
:1003E000204670BDBF10000001694A1C02610878F8
:1003F000704700B58FB0CDE9013100210591054965
:100400007944CDE9031011466846FFF70FFF0FB09E
:1004100000BD0000E5FFFFFF007B00F0800070479B
:10042000754600F029F8AE4605006946534620F0AF
:100430000700854618B020B5FFF7DAFEBDE820407A
:100440004FF000064FF000074FF000084FF0000B90
:1004500021F00701AC46ACE8C009ACE8C009ACE843
:10046000C009ACE8C0098D4670470446AFF3008070
:100470002046FFF7A9FE000000487047C400002096
:1004800001491820ABBEFEE726000200704721B1EB
:10049000826842F00102826003E0826822F0010279
:1004A0008260704710B504461248844208D1012189
:1004B000401500F03BFB0021601500F037FB17E012
:1004C0000D48844208D10121001500F02FFB0021C6
:1004D000201500F02BFB0BE00848844208D10121D5
:1004E000C80300F023FB00214FF4004000F01EFB86
:1004F00010BD00000024014000280140003C0140E4
:10050000014600208A6802F004020AB1012000E0DE
:10051000002070470146C86C80B270470246002038
:1005200013680B400BB1012000E00020704701462A
:1005300000208A6802F008020AB1012000E00020D1
:100540007047000030B502460020002350680F4C71
:1005500020400D790C6844EA0524204350609068DF
:100560000B4C2040D1E902542C434D7944EA450418
:1005700020439060D06A20F470000C7C641EE4B2CA
:10058000234340EA0350D06230BD0000FFFEF0FF7D
:10059000FDF7F1FFF0B504460D4600200021092DBE
:1005A00011DDE068A5F10A0606EB4607072606FA04
:1005B00007F18843A5F10A0606EB460603FA06F1A1
:1005C0000843E0600CE0206905EB4507072606FAC2
:1005D00007F1884305EB450603FA06F1084320615D
:1005E000072A0FDA606B561E06EB86071F2606FAEF
:1005F00007F18843561E06EB860605FA06F1084306
:10060000606322E00D2A0FDA206BD61F06EB860707
:100610001F2606FA07F18843D61F06EB860605FA61
:1006200006F10843206310E0E06AA2F10D0606EB34
:1006300086071F2606FA07F18843A2F10D0606EB8E
:10064000860605FA06F10843E062F0BD816841F0D4
:1006500008018160704721B1826842F4A002826083
:1006600003E0826822F4A00282607047816841F052
:100670000401816070470021016001714171816056
:10068000C16001210174704730B585B005460C4644
:100690006A48854204D10121401500F037FA0EE086
:1006A0006748854204D10121001500F02FFA06E0C9
:1006B0006448854203D10121C80300F027FA34B908
:1006C00000231A460121604800F052F985E0012C10
:1006D00006D100231A4602215B4800F049F97CE06C
:1006E000022C06D100231A460421574800F040F995
:1006F00073E0032C06D100231A460821524800F06B
:1007000037F96AE0042C06D100231A4610214E481E
:1007100000F02EF961E0052C06D100231A462021B5
:10072000494800F025F958E0062C06D100231A4666
:100730004021454800F01CF94FE0072C06D100236A
:100740001A468021404800F013F946E0082C06D1F3
:1007500000231A4601213D4800F00AF93DE0092C2A
:1007600006D100231A460221384800F001F934E08E
:100770000A2C06D100231A460121354800F0F8F86A
:100780002BE00B2C06D100231A460221304800F042
:10079000EFF822E00C2C06D100231A4604212C4845
:1007A00000F0E6F819E00D2C06D100231A460821C6
:1007B000274800F0DDF810E00E2C06D100231A4681
:1007C0001021234800F0D4F807E00F2C05D10023B6
:1007D0001A4620211E4800F0CBF82846FFF762FE9B
:1007E0006846FFF748FF0020009001208DF80400C4
:1007F0008DF805004FF46020029000200390012046
:100800008DF8100069460D48FFF79CFE012128462F
:10081000FFF73DFE2846FFF719FF00BF2846FFF708
:1008200086FE0128FAD02846FFF720FF00BF2846A1
:10083000FFF766FE0128FAD005B030BD0024014064
:1008400000280140003C014000080140000C01402C
:100850000010014000BFFEE770472DE9F04102465D
:1008600000250026002000230024002791F803C063
:100870000CF00F0591F803C00CF0100CBCF1000F48
:1008800003D091F802C04CEA050591F800C0BCF114
:10089000000F31D0146800202BE04FF0010C0CFA4F
:1008A00000F3B1F800C00CEA03069E4220D1830099
:1008B0004FF00F0C0CFA03F7BC4305FA03FC4CEAAB
:1008C000040491F803C0BCF1280F06D14FF0010CCD
:1008D0000CFA00FCC2F814C00AE091F803C0BCF1A5
:1008E000480F05D14FF0010C0CFA00FCC2F810C003
:1008F000401C0828D1D31460B1F800C0BCF1FF0F30
:1009000034DD546800202EE000F1080C4FF001089F
:1009100008FA0CF3B1F800C00CEA03069E4221D19C
:1009200083004FF00F0C0CFA03F7BC4305FA03FCED
:100930004CEA040491F803C0BCF1280F05D100F182
:10094000080C08FA0CF8C2F8148091F803C0BCF146
:10095000480F07D100F1080C4FF0010808FA0CF815
:10096000C2F81080401C0828CED35460BDE8F08146
:10097000F8B504460D4616461F462148844204D168
:100980000121042000F0C2F82EE01E48844204D168
:100990000121082000F0BAF826E01B48844204D167
:1009A0000121102000F0B2F81EE01848844204D162
:1009B0000121202000F0AAF816E01548844204D155
:1009C0000121402000F0A2F80EE01248844204D138
:1009D0000121802000F09AF806E00F48844203D1FC
:1009E0000121801500F092F8ADF800508DF80360F9
:1009F0008DF8027069462046FFF72FFFF8BD000012
:100A000000080140000C01400010014000140140AA
:100A100000180140001C01400020014070B5044650
:100A20000D460723012229462046FFF7B3FD012189
:100A30002046FFF710FE00BF02212046FFF76EFDA3
:100A40000028F9D02046FFF765FD70BD00BFFEE726
:100A500000BFFEE77047000070B5002100230F22A1
:100A6000C47804B3154C246804F4E064C4F5E0646D
:100A7000210AC1F10403CA40447804FA03F18478DE
:100A80001440214309010E4C0678A155047804F066
:100A90001F050124AC4005786D11AD0005F1E0257E
:100AA000C5F8004109E0047804F01F050124AC40BA
:100AB000044D0678761145F8264070BD0CED00E037
:100AC00000E400E080E100E07047000029B1064A40
:100AD000D2690243044BDA6104E0034AD2698243DB
:100AE000014BDA61704700000010024029B1064A4C
:100AF00012690243044B1A6104E0034A12698243FB
:100B0000014B1A61704700000010024029B1064AEB
:100B100092690243044B9A6104E0034A926982435A
:100B2000014B9A61704700000010024029B1064A4B
:100B3000D2680243044BDA6004E0034AD26882437D
:100B4000014BDA60704700000010024030B5002110
:100B50000022002400232D4D6D6805F00C0121B109
:100B6000042905D0082923D105E0294D056022E09C
:100B7000274D05601FE0254D6D6805F47012234D6B
:100B80006D6805F48034022505EB92421CB9214DB5
:100B9000554305600BE01D4D6D6805F400351DB132
:100BA0001C4D5543056002E0194D5543056002E0B8
:100BB000174D056000BF00BF144D6D6805F0F001D2
:100BC0000909154D6B5C0568DD4045600F4D6D688A
:100BD00005F4E061090A104D6B5C4568DD408560F5
:100BE0000A4D6D6805F46051C90A0B4D6B5C456890
:100BF000DD40C560054D6D6805F44041890B074D2A
:100C00006B5CC568B5FBF3F5056130BD00100240B3
:100C100000127A0000093D000400002014000020AA
:100C2000704710B500F002F810BD00000CB50020B0
:100C3000019000903348006840F4803031490860EA
:100C400000BF3048006800F4003000900198401C5C
:100C50000190009818B90198B0F5A06FF1D129481A
:100C6000006800F4003010B10120009001E0002085
:100C700000900098012843D12348006840F01000FC
:100C8000214908600846006820F003000860084613
:100C9000006840F0020008601A484068194948603E
:100CA0000846406848600846406840F480604860F4
:100CB0000846406820F47C1048600846406840F4CC
:100CC000E81048600846006840F08070086000BF87
:100CD0000C48006800F000700028F9D0094840680E
:100CE00020F00300074948600846406840F00200D1
:100CF000486000BF0348406800F00C000828F9D1A4
:100D00000CBD00000010024000200240042808D161
:100D10004FF0E021096941F004014FF0E022116138
:100D200007E04FF0E021096921F004014FF0E022D3
:100D3000116170477047000010B51348006840F01B
:100D400001001149086008464068104908400E49F2
:100D50004860084600680E4908400B49086008468C
:100D6000006820F4802008600846406820F4FE00F7
:100D700048604FF41F008860FFF753FF4FF000609A
:100D80000449086010BD0000001002400000FFF898
:100D9000FFFFF6FE08ED00E02DE9F04106460F46A4
:100DA0001446002500200C4908600CE001210B4886
:100DB000FFF734FE0544052000F042FB06480068BA
:100DC000401C0549086004480068A042EEDBB5FB02
:100DD000F4F080B2BDE8F081000000200024014062
:100DE00010B540F22551064800F091F930B10448A1
:100DF000001D0088C1B2034800F0C8F910BD000012
:100E0000003801402000002010B50446E4B901215B
:100E10000520FFF77BFE01218803FFF777FE4FF4E3
:100E20000070184908801820C87003208870164880
:100E3000FFF713FD4FF48060124908800420C8704A
:100E40001148FFF70AFD1BE0012C19D101210820F0
:100E5000FFF75CFE01218803FFF758FE4020094997
:100E600008801820C870032088700848FFF7F5FC38
:100E70008020044908800420C8700448FFF7EDFC76
:100E800010BD00004400002000080140000C01409B
:100E900010B540F22551064800F039F930B1044848
:100EA000001D0088C1B2034800F070F910BD0000B9
:100EB000004400402C00002010B5044601214804E5
:100EC000FFF704FE022C1AD101210420FFF71EFEB9
:100ED00001214804FFF7FAFD042017490880182073
:100EE000C870032088701548FFF7B7FC0820124926
:100EF00008800420C8701148FFF7AFFC1BE0032CEA
:100F000019D101212020FFF701FE01214804FFF73C
:100F1000DDFD2020084908801820C8700320887053
:100F20000748FFF79AFC4020034908800420C87056
:100F30000348FFF792FC10BD440000200008014068
:100F40000014014010B540F22551064800F0DFF8CA
:100F500030B10448001D0088C1B2034800F016F902
:100F600010BD0000004800403800002010B50446C5
:100F700001218804FFF7AAFD042C1AD101210820C1
:100F8000FFF7C4FD01218804FFF7C0FD20022849B6
:100F900008801820C870032088702648FFF75DFC81
:100FA0006002234908800420C8702248FFF755FCDE
:100FB0003CE0052C1CD101211020FFF7A7FD0121E9
:100FC0008804FFF7A3FD4FF48060194908801820BA
:100FD000C870032088701848FFF73FFC4FF400608A
:100FE000134908800420C8701348FFF736FC1DE041
:100FF000062C1BD101212020FFF788FD0121880448
:10100000FFF784FD4FF48070094908801820C870EC
:10101000032088700948FFF720FC4FF40070044952
:1010200008800420C8700548FFF717FC10BD0000B9
:1010300044000020000C0140001001400014014059
:1010400021B1828942F40052828104E082894DF606
:10105000FF731A408281704710B5044620488442CD
:1010600009D101218803FFF761FD00214FF4804081
:10107000FFF75CFD32E01B48844209D1012148049E
:10108000FFF734FD00214FF40030FFF72FFD25E07E
:101090001548844209D101218804FFF727FD00216A
:1010A0004FF48020FFF722FD18E01048844209D158
:1010B0000121C804FFF71AFD00214FF40020FFF7BB
:1010C00015FD0BE00A48844208D101210805FFF70D
:1010D0000DFD00214FF48010FFF708FD10BD00004A
:1010E000003801400044004000480040004C0040EF
:1010F0000050004002460020B1F5007F00D100BF43
:1011000013880B400BB1012000E00020704770B540
:101110000246002400230025002040F66A16B14252
:1011200000D100BFC1F3421501F01F03012606FAEA
:1011300003F3012D02D19689334006E0022D02D13E
:10114000168A334001E0968A33400C12012606FAD3
:1011500004F41688344013B10CB1012000E00020E3
:1011600070BD00000146064A914200D10020054AA8
:10117000914200D10120044A914200D102207047DF
:1011800000380140004400400048004010B5C288CB
:1011900083889A420FDA028983889A4201D1002219
:1011A00002814AB2048903681A550289521C0281DD
:1011B000C288521CC28010BDF0B503460024002630
:1011C0000025002040F66A17B94200D100BF18463A
:1011D000C1F3421401F01F06012707FA06F5012C9E
:1011E00001D10C3004E0022C01D1103000E01430A9
:1011F0001AB107682F43076002E00768AF43076032
:10120000F0BD00002DE9F04786B005460E460024EB
:10121000A24600BFA1460027B08900B100BF2F46FB
:101220002C8A4CF6FF700440F08804432C82AC8971
:101230004EF6F3100440B0883189084371890843A1
:101240000443AC81AC8A4FF6FF400440B0890443AC
:10125000AC8201A8FFF77AFC1F48874202D1DDF873
:1012600010A001E0DDF80CA0A88900F4004040B116
:101270000AEBCA0000EB0A1031684900B0FBF1F834
:1012800007E00AEBCA0000EB0A1031688900B0FBE6
:10129000F1F86420B8FBF0F004012009642101FB9F
:1012A0001089A88900F4004040B1322000EBC90049
:1012B000B0FBF1F000F00700044308E0322000EB3F
:1012C00009106421B0FBF1F000F00F0004432C8101
:1012D00006B0BDE8F08700000038014013B50446B1
:1012E00000BF80212046FFF705FF0028F9D09DF8B8
:1012F0000400A0801CBD70B505460C4604E014F83F
:10130000011B2846FFF7EAFF20780028F7D170BDBF
:1013100070B586B004460D461646029633488442A0
:1013200012D12846FFF770FD25208DF8040000201B
:10133000ADF814000C20ADF812000020ADF810003C
:10134000ADF80E00ADF80C002948844212D12846B1
:10135000FFF7B2FD26208DF804000020ADF8140040
:101360000C20ADF812000020ADF81000ADF80E0012
:10137000ADF80C001F48844212D12846FFF7F6FD55
:1013800027208DF804000020ADF814000C20ADF8E3
:1013900012000020ADF81000ADF80E00ADF80C0002
:1013A00000212046FFF74CFE2046FFF755FE02A91C
:1013B0002046FFF727FF01212046FFF741FE0122CB
:1013C00040F225512046FFF7F7FE01208DF8070077
:1013D00000208DF805002046FFF7C4FE8DF80600BA
:1013E00001A8FFF739FB06B070BD000000380140CE
:1013F000004400400048004000BFFEE710B56FF019
:101400000400FFF783FC0A4800680A49B0FBF1F0CA
:10141000094908700846007800EB4001C1EBC01094
:101420004FF6FF7101EAC0000449088010BD0000BA
:101430005000002000127A00180000201A0000203E
:101440000146114A12884A434FF0E0235A610022B4
:101450009A611A46126942F001021A6100BF4FF008
:10146000E022106900F001021AB100F48032002A73
:10147000F5D04FF0E022126922F001024FF0E02394
:101480001A6100229A6170471A00002070B5044664
:101490000D46E1B20248FFF721FF204670BD000073
:1014A00000380140FFF7AAFF01210F48FFF7ECF8D1
:1014B0004FF4E13200210D48FFF72AFF0CA10B4841
:1014C000FFF719FF0EE0C82201210748FFF764FC6F
:1014D0000A4908800846018809A0FEF79BFEC8203B
:1014E000FFF7AEFFEFE700000024014000380140A5
:1014F0004C56445F4943200A000000004800002089
:1015000025640A0024150008000000206400000083
:101510006C0100088815000864000020C406000063
:101520008801000800000000000000000102030420
:10153000010203040607080902040608000000006F
:1015400000000000640000202000000000000000F7
:10155000840000202000000000000000A400002003
:10156000200000000000000000000000000000005B
:101570000000000000A24A0400000000000000007B
:0815800001020304060708093B
:0400000508000131BD
:00000001FF
